{
  "_format": "hh-sol-artifact-1",
  "contractName": "WyvernProxyRegistry",
  "sourceName": "contracts/WyvernRegistry.sol",
  "abi": [
    {
      "constant": true,
      "inputs": [],
      "name": "name",
      "outputs": [
        {
          "name": "",
          "type": "string"
        }
      ],
      "payable": false,
      "stateMutability": "view",
      "type": "function"
    },
    {
      "constant": true,
      "inputs": [],
      "name": "initialAddressSet",
      "outputs": [
        {
          "name": "",
          "type": "bool"
        }
      ],
      "payable": false,
      "stateMutability": "view",
      "type": "function"
    },
    {
      "constant": false,
      "inputs": [
        {
          "name": "addr",
          "type": "address"
        }
      ],
      "name": "endGrantAuthentication",
      "outputs": [],
      "payable": false,
      "stateMutability": "nonpayable",
      "type": "function"
    },
    {
      "constant": false,
      "inputs": [
        {
          "name": "addr",
          "type": "address"
        }
      ],
      "name": "revokeAuthentication",
      "outputs": [],
      "payable": false,
      "stateMutability": "nonpayable",
      "type": "function"
    },
    {
      "constant": true,
      "inputs": [
        {
          "name": "",
          "type": "address"
        }
      ],
      "name": "pending",
      "outputs": [
        {
          "name": "",
          "type": "uint256"
        }
      ],
      "payable": false,
      "stateMutability": "view",
      "type": "function"
    },
    {
      "constant": true,
      "inputs": [
        {
          "name": "",
          "type": "address"
        }
      ],
      "name": "contracts",
      "outputs": [
        {
          "name": "",
          "type": "bool"
        }
      ],
      "payable": false,
      "stateMutability": "view",
      "type": "function"
    },
    {
      "constant": false,
      "inputs": [],
      "name": "renounceOwnership",
      "outputs": [],
      "payable": false,
      "stateMutability": "nonpayable",
      "type": "function"
    },
    {
      "constant": true,
      "inputs": [],
      "name": "owner",
      "outputs": [
        {
          "name": "",
          "type": "address"
        }
      ],
      "payable": false,
      "stateMutability": "view",
      "type": "function"
    },
    {
      "constant": true,
      "inputs": [],
      "name": "delegateProxyImplementation",
      "outputs": [
        {
          "name": "",
          "type": "address"
        }
      ],
      "payable": false,
      "stateMutability": "view",
      "type": "function"
    },
    {
      "constant": true,
      "inputs": [
        {
          "name": "",
          "type": "address"
        }
      ],
      "name": "proxies",
      "outputs": [
        {
          "name": "",
          "type": "address"
        }
      ],
      "payable": false,
      "stateMutability": "view",
      "type": "function"
    },
    {
      "constant": false,
      "inputs": [
        {
          "name": "addr",
          "type": "address"
        }
      ],
      "name": "startGrantAuthentication",
      "outputs": [],
      "payable": false,
      "stateMutability": "nonpayable",
      "type": "function"
    },
    {
      "constant": false,
      "inputs": [],
      "name": "registerProxy",
      "outputs": [
        {
          "name": "proxy",
          "type": "address"
        }
      ],
      "payable": false,
      "stateMutability": "nonpayable",
      "type": "function"
    },
    {
      "constant": true,
      "inputs": [],
      "name": "DELAY_PERIOD",
      "outputs": [
        {
          "name": "",
          "type": "uint256"
        }
      ],
      "payable": false,
      "stateMutability": "view",
      "type": "function"
    },
    {
      "constant": false,
      "inputs": [
        {
          "name": "authAddress",
          "type": "address"
        }
      ],
      "name": "grantInitialAuthentication",
      "outputs": [],
      "payable": false,
      "stateMutability": "nonpayable",
      "type": "function"
    },
    {
      "constant": false,
      "inputs": [
        {
          "name": "newOwner",
          "type": "address"
        }
      ],
      "name": "transferOwnership",
      "outputs": [],
      "payable": false,
      "stateMutability": "nonpayable",
      "type": "function"
    },
    {
      "inputs": [],
      "payable": false,
      "stateMutability": "nonpayable",
      "type": "constructor"
    },
    {
      "anonymous": false,
      "inputs": [
        {
          "indexed": true,
          "name": "previousOwner",
          "type": "address"
        }
      ],
      "name": "OwnershipRenounced",
      "type": "event"
    },
    {
      "anonymous": false,
      "inputs": [
        {
          "indexed": true,
          "name": "previousOwner",
          "type": "address"
        },
        {
          "indexed": true,
          "name": "newOwner",
          "type": "address"
        }
      ],
      "name": "OwnershipTransferred",
      "type": "event"
    }
  ],
  "bytecode": "0x6080604052621275006005556006805460ff1916905534801561002157600080fd5b5060008054600160a060020a0319163317905561003c61007e565b604051809103906000f080158015610058573d6000803e3d6000fd5b5060018054600160a060020a031916600160a060020a039290921691909117905561008e565b60405161098780610f9c83390190565b610eff8061009d6000396000f3006080604052600436106100da5763ffffffff7c010000000000000000000000000000000000000000000000000000000060003504166306fdde0381146100df5780631a86ac4f1461016957806338b6e4071461019257806353376d1f146101b55780635eebea20146101d657806369dc9ff314610209578063715018a61461022a5780638da5cb5b1461023f57806397204d8e14610270578063c455279114610285578063d4e8e063146102a6578063ddd81f82146102c7578063e71a02e1146102dc578063ef7f3834146102f1578063f2fde38b14610312575b600080fd5b3480156100eb57600080fd5b506100f4610333565b6040805160208082528351818301528351919283929083019185019080838360005b8381101561012e578181015183820152602001610116565b50505050905090810190601f16801561015b5780820380516001836020036101000a031916815260200191505b509250505060405180910390f35b34801561017557600080fd5b5061017e61036a565b604080519115158252519081900360200190f35b34801561019e57600080fd5b506101b3600160a060020a0360043516610373565b005b3480156101c157600080fd5b506101b3600160a060020a036004351661042e565b3480156101e257600080fd5b506101f7600160a060020a0360043516610466565b60408051918252519081900360200190f35b34801561021557600080fd5b5061017e600160a060020a0360043516610478565b34801561023657600080fd5b506101b361048d565b34801561024b57600080fd5b506102546104f9565b60408051600160a060020a039092168252519081900360200190f35b34801561027c57600080fd5b50610254610508565b34801561029157600080fd5b50610254600160a060020a0360043516610517565b3480156102b257600080fd5b506101b3600160a060020a0360043516610532565b3480156102d357600080fd5b506102546105af565b3480156102e857600080fd5b506101f761074e565b3480156102fd57600080fd5b506101b3600160a060020a0360043516610754565b34801561031e57600080fd5b506101b3600160a060020a03600435166107b0565b60408051808201909152601d81527f50726f6a6563742057797665726e2050726f7879205265676973747279000000602082015281565b60065460ff1681565b600054600160a060020a0316331461038a57600080fd5b600160a060020a03811660009081526004602052604090205460ff161580156103ca5750600160a060020a03811660009081526003602052604090205415155b80156103f25750600554600160a060020a038216600090815260036020526040902054429101105b15156103fd57600080fd5b600160a060020a0316600090815260036020908152604080832083905560049091529020805460ff19166001179055565b600054600160a060020a0316331461044557600080fd5b600160a060020a03166000908152600460205260409020805460ff19169055565b60036020526000908152604090205481565b60046020526000908152604090205460ff1681565b600054600160a060020a031633146104a457600080fd5b60008054604051600160a060020a03909116917ff8df31144d9c2f0f6b59d69b8b98abd5459d07f2742c4df920b25aae33c6482091a26000805473ffffffffffffffffffffffffffffffffffffffff19169055565b600054600160a060020a031681565b600154600160a060020a031681565b600260205260009081526040902054600160a060020a031681565b600054600160a060020a0316331461054957600080fd5b600160a060020a03811660009081526004602052604090205460ff161580156105885750600160a060020a038116600090815260036020526040902054155b151561059357600080fd5b600160a060020a03166000908152600360205260409020429055565b33600090815260026020526040812054600160a060020a0316156105d257600080fd5b600154604080513360248201819052306044808401919091528351808403909101815260649092019092526020810180517bffffffffffffffffffffffffffffffffffffffffffffffffffffffff167f485cc955000000000000000000000000000000000000000000000000000000001790529091600160a060020a031690610659610844565b8084600160a060020a0316600160a060020a0316815260200183600160a060020a0316600160a060020a0316815260200180602001828103825283818151815260200191508051906020019080838360005b838110156106c35781810151838201526020016106ab565b50505050905090810190601f1680156106f05780820380516001836020036101000a031916815260200191505b50945050505050604051809103906000f080158015610713573d6000803e3d6000fd5b50336000908152600260205260409020805473ffffffffffffffffffffffffffffffffffffffff1916600160a060020a038316179055919050565b60055481565b600054600160a060020a0316331461076b57600080fd5b60065460ff161561077b57600080fd5b6006805460ff199081166001908117909255600160a060020a0390921660009081526004602052604090208054909216179055565b600054600160a060020a031633146107c757600080fd5b600160a060020a03811615156107dc57600080fd5b60008054604051600160a060020a03808516939216917f8be0079c531659141344cd1fd0a4f28419497f9722a3daafe3b4186f6b6457e091a36000805473ffffffffffffffffffffffffffffffffffffffff1916600160a060020a0392909216919091179055565b60405161067f80610855833901905600608060405234801561001057600080fd5b5060405161067f38038061067f8339810160409081528151602083015191830151909201610046836401000000006100e0810204565b61005882640100000000610102810204565b81600160a060020a03168160405180828051906020019080838360005b8381101561008d578181015183820152602001610075565b50505050905090810190601f1680156100ba5780820380516001836020036101000a031916815260200191505b50915050600060405180830381855af491505015156100d857600080fd5b505050610165565b60018054600160a060020a031916600160a060020a0392909216919091179055565b600054600160a060020a038281169116141561011d57600080fd5b60008054600160a060020a031916600160a060020a038316908117825560405190917fbc7cd75a20ee27fd9adebab32041f755214dbc6bffa90cc0225b39da2e5c2d3b91a250565b61050b806101746000396000f3006080604052600436106100825763ffffffff7c0100000000000000000000000000000000000000000000000000000000600035041663025313a281146100d55780633659cfe6146101135780634555d5c9146101435780634f1ef2861461016a5780635c60da1b146101d15780636fde8202146101e6578063f1739cae146101fb575b600061008c610229565b905073ffffffffffffffffffffffffffffffffffffffff811615156100b057600080fd5b60405136600082376000803683855af43d806000843e8180156100d1578184f35b8184fd5b3480156100e157600080fd5b506100ea610245565b6040805173ffffffffffffffffffffffffffffffffffffffff9092168252519081900360200190f35b34801561011f57600080fd5b5061014173ffffffffffffffffffffffffffffffffffffffff60043516610254565b005b34801561014f57600080fd5b50610158610289565b60408051918252519081900360200190f35b60408051602060046024803582810135601f810185900485028601850190965285855261014195833573ffffffffffffffffffffffffffffffffffffffff1695369560449491939091019190819084018382808284375094975061028e9650505050505050565b3480156101dd57600080fd5b506100ea610229565b3480156101f257600080fd5b506100ea610351565b34801561020757600080fd5b5061014173ffffffffffffffffffffffffffffffffffffffff6004351661036d565b60005473ffffffffffffffffffffffffffffffffffffffff1690565b600061024f610351565b905090565b61025c610245565b73ffffffffffffffffffffffffffffffffffffffff16331461027d57600080fd5b61028681610419565b50565b600290565b610296610245565b73ffffffffffffffffffffffffffffffffffffffff1633146102b757600080fd5b6102c082610254565b3073ffffffffffffffffffffffffffffffffffffffff168160405180828051906020019080838360005b838110156103025781810151838201526020016102ea565b50505050905090810190601f16801561032f5780820380516001836020036101000a031916815260200191505b50915050600060405180830381855af4915050151561034d57600080fd5b5050565b60015473ffffffffffffffffffffffffffffffffffffffff1690565b610375610245565b73ffffffffffffffffffffffffffffffffffffffff16331461039657600080fd5b73ffffffffffffffffffffffffffffffffffffffff811615156103b857600080fd5b7f5a3e66efaa1e445ebd894728a69d6959842ea1e97bd79b892797106e270efcd96103e1610245565b6040805173ffffffffffffffffffffffffffffffffffffffff928316815291841660208301528051918290030190a1610286816104a3565b60005473ffffffffffffffffffffffffffffffffffffffff8281169116141561044157600080fd5b6000805473ffffffffffffffffffffffffffffffffffffffff191673ffffffffffffffffffffffffffffffffffffffff8316908117825560405190917fbc7cd75a20ee27fd9adebab32041f755214dbc6bffa90cc0225b39da2e5c2d3b91a250565b6001805473ffffffffffffffffffffffffffffffffffffffff191673ffffffffffffffffffffffffffffffffffffffff929092169190911790555600a165627a7a723058200e44a189f6815b2c32bb906ffe386799b9e5b826a2c0087d9758acde5fb957da0029a165627a7a7230582003f35124d149407923906a64361b3e5e9fa186db1d51c0cc77de06c8e37ce2d8002960806040526001805460a060020a60ff021916905534801561002057600080fd5b50610957806100306000396000f3006080604052600436106100ae5763ffffffff7c01000000000000000000000000000000000000000000000000000000006000350416631b0f7ba981146100e65780633f801f91146101735780634555d5c9146101ee578063485cc955146102155780634c93505f146102495780634f8632ba146102635780635c60da1b146102a157806363d256ce146102b65780636fde8202146102cb5780637b103999146102e05780638f4ffcb1146102f5575b60408051348152905133917fa419615bc8fda4c87663805ee2a3597a6d71c1d476911d9892f340d965bc7bf1919081900360200190a2005b3480156100f257600080fd5b50604080516020600460443581810135601f810184900484028501840190955284845261015f94823573ffffffffffffffffffffffffffffffffffffffff16946024803560ff16953695946064949201919081908401838280828437509497506103729650505050505050565b604080519115158252519081900360200190f35b34801561017f57600080fd5b50604080516020600460443581810135601f81018490048402850184019095528484526101ec94823573ffffffffffffffffffffffffffffffffffffffff16946024803560ff16953695946064949201919081908401838280828437509497506105a59650505050505050565b005b3480156101fa57600080fd5b506102036105c0565b60408051918252519081900360200190f35b34801561022157600080fd5b506101ec73ffffffffffffffffffffffffffffffffffffffff600435811690602435166105c5565b34801561025557600080fd5b506101ec6004351515610675565b34801561026f57600080fd5b5061027861070e565b6040805173ffffffffffffffffffffffffffffffffffffffff9092168252519081900360200190f35b3480156102ad57600080fd5b5061027861072a565b3480156102c257600080fd5b5061015f610746565b3480156102d757600080fd5b50610278610767565b3480156102ec57600080fd5b50610278610783565b34801561030157600080fd5b50604080516020601f6064356004818101359283018490048402850184019095528184526101ec9473ffffffffffffffffffffffffffffffffffffffff81358116956024803596604435909316953695608494920191819084018382808284375094975061079f9650505050505050565b60025460009073ffffffffffffffffffffffffffffffffffffffff1633148061045c575060035474010000000000000000000000000000000000000000900460ff1615801561045c5750600354604080517f69dc9ff3000000000000000000000000000000000000000000000000000000008152336004820152905173ffffffffffffffffffffffffffffffffffffffff909216916369dc9ff3916024808201926020929091908290030181600087803b15801561042f57600080fd5b505af1158015610443573d6000803e3d6000fd5b505050506040513d602081101561045957600080fd5b50515b151561046757600080fd5b600083600181111561047557fe5b1415610506578373ffffffffffffffffffffffffffffffffffffffff168260405180828051906020019080838360005b838110156104bd5781810151838201526020016104a5565b50505050905090810190601f1680156104ea5780820380516001836020036101000a031916815260200191505b509150506000604051808303816000865af1915050905061059e565b600183600181111561051457fe5b141561059e578373ffffffffffffffffffffffffffffffffffffffff168260405180828051906020019080838360005b8381101561055c578181015183820152602001610544565b50505050905090810190601f1680156105895780820380516001836020036101000a031916815260200191505b50915050600060405180830381855af4925050505b9392505050565b6105b0838383610372565b15156105bb57600080fd5b505050565b600290565b60015474010000000000000000000000000000000000000000900460ff16156105ed57600080fd5b6001805474ff00000000000000000000000000000000000000001916740100000000000000000000000000000000000000001790556002805473ffffffffffffffffffffffffffffffffffffffff9384167fffffffffffffffffffffffff00000000000000000000000000000000000000009182161790915560038054929093169116179055565b60025473ffffffffffffffffffffffffffffffffffffffff16331461069957600080fd5b6003805482151574010000000000000000000000000000000000000000810274ff0000000000000000000000000000000000000000199092169190911790915560408051918252517f2165014523a6f4135deffed62d70149aad59b64de5aac51e3abbcbe2a83e2f7e9181900360200190a150565b60025473ffffffffffffffffffffffffffffffffffffffff1681565b60005473ffffffffffffffffffffffffffffffffffffffff1690565b60035474010000000000000000000000000000000000000000900460ff1681565b60015473ffffffffffffffffffffffffffffffffffffffff1690565b60035473ffffffffffffffffffffffffffffffffffffffff1681565b604080517f23b872dd00000000000000000000000000000000000000000000000000000000815273ffffffffffffffffffffffffffffffffffffffff868116600483015230602483015260448201869052915184928316916323b872dd9160648083019260209291908290030181600087803b15801561081e57600080fd5b505af1158015610832573d6000803e3d6000fd5b505050506040513d602081101561084857600080fd5b5051151561085557600080fd5b8273ffffffffffffffffffffffffffffffffffffffff168573ffffffffffffffffffffffffffffffffffffffff167fd65b48fd35864b3528d38e44760be5553248f89bf3ff6b06cca57817cc2650bf86856040518083815260200180602001828103825283818151815260200191508051906020019080838360005b838110156108e95781810151838201526020016108d1565b50505050905090810190601f1680156109165780820380516001836020036101000a031916815260200191505b50935050505060405180910390a350505050505600a165627a7a72305820f9a9bd4877fd6cdfb16bdfdb2b3738a4f9b6250906e79fb11a45d255670d6b7a0029",
  "linkReferences": {},
  "deployedLinkReferences": {}
}